{
  "_format": "hh-sol-artifact-1",
  "contractName": "NFT",
  "sourceName": "contracts/NFT.sol",
  "abi": [
    {
      "inputs": [
        {
          "internalType": "string",
          "name": "_name",
          "type": "string"
        },
        {
          "internalType": "string",
          "name": "_symbol",
          "type": "string"
        },
        {
          "internalType": "uint256",
          "name": "_cost",
          "type": "uint256"
        }
      ],
      "stateMutability": "nonpayable",
      "type": "constructor"
    },
    {
      "anonymous": false,
      "inputs": [
        {
          "indexed": true,
          "internalType": "address",
          "name": "owner",
          "type": "address"
        },
        {
          "indexed": true,
          "internalType": "address",
          "name": "approved",
          "type": "address"
        },
        {
          "indexed": true,
          "internalType": "uint256",
          "name": "tokenId",
          "type": "uint256"
        }
      ],
      "name": "Approval",
      "type": "event"
    },
    {
      "anonymous": false,
      "inputs": [
        {
          "indexed": true,
          "internalType": "address",
          "name": "owner",
          "type": "address"
        },
        {
          "indexed": true,
          "internalType": "address",
          "name": "operator",
          "type": "address"
        },
        {
          "indexed": false,
          "internalType": "bool",
          "name": "approved",
          "type": "bool"
        }
      ],
      "name": "ApprovalForAll",
      "type": "event"
    },
    {
      "anonymous": false,
      "inputs": [
        {
          "indexed": true,
          "internalType": "address",
          "name": "from",
          "type": "address"
        },
        {
          "indexed": true,
          "internalType": "address",
          "name": "to",
          "type": "address"
        },
        {
          "indexed": true,
          "internalType": "uint256",
          "name": "tokenId",
          "type": "uint256"
        }
      ],
      "name": "Transfer",
      "type": "event"
    },
    {
      "inputs": [
        {
          "internalType": "address",
          "name": "to",
          "type": "address"
        },
        {
          "internalType": "uint256",
          "name": "tokenId",
          "type": "uint256"
        }
      ],
      "name": "approve",
      "outputs": [],
      "stateMutability": "nonpayable",
      "type": "function"
    },
    {
      "inputs": [
        {
          "internalType": "address",
          "name": "owner",
          "type": "address"
        }
      ],
      "name": "balanceOf",
      "outputs": [
        {
          "internalType": "uint256",
          "name": "",
          "type": "uint256"
        }
      ],
      "stateMutability": "view",
      "type": "function"
    },
    {
      "inputs": [],
      "name": "cost",
      "outputs": [
        {
          "internalType": "uint256",
          "name": "",
          "type": "uint256"
        }
      ],
      "stateMutability": "view",
      "type": "function"
    },
    {
      "inputs": [
        {
          "internalType": "uint256",
          "name": "tokenId",
          "type": "uint256"
        }
      ],
      "name": "getApproved",
      "outputs": [
        {
          "internalType": "address",
          "name": "",
          "type": "address"
        }
      ],
      "stateMutability": "view",
      "type": "function"
    },
    {
      "inputs": [],
      "name": "getTokenIds",
      "outputs": [
        {
          "internalType": "uint256[]",
          "name": "",
          "type": "uint256[]"
        }
      ],
      "stateMutability": "view",
      "type": "function"
    },
    {
      "inputs": [
        {
          "internalType": "address",
          "name": "owner",
          "type": "address"
        },
        {
          "internalType": "address",
          "name": "operator",
          "type": "address"
        }
      ],
      "name": "isApprovedForAll",
      "outputs": [
        {
          "internalType": "bool",
          "name": "",
          "type": "bool"
        }
      ],
      "stateMutability": "view",
      "type": "function"
    },
    {
      "inputs": [
        {
          "internalType": "string",
          "name": "tokenURI",
          "type": "string"
        }
      ],
      "name": "mint",
      "outputs": [],
      "stateMutability": "payable",
      "type": "function"
    },
    {
      "inputs": [],
      "name": "name",
      "outputs": [
        {
          "internalType": "string",
          "name": "",
          "type": "string"
        }
      ],
      "stateMutability": "view",
      "type": "function"
    },
    {
      "inputs": [],
      "name": "owner",
      "outputs": [
        {
          "internalType": "address",
          "name": "",
          "type": "address"
        }
      ],
      "stateMutability": "view",
      "type": "function"
    },
    {
      "inputs": [
        {
          "internalType": "uint256",
          "name": "tokenId",
          "type": "uint256"
        }
      ],
      "name": "ownerOf",
      "outputs": [
        {
          "internalType": "address",
          "name": "",
          "type": "address"
        }
      ],
      "stateMutability": "view",
      "type": "function"
    },
    {
      "inputs": [
        {
          "internalType": "address",
          "name": "from",
          "type": "address"
        },
        {
          "internalType": "address",
          "name": "to",
          "type": "address"
        },
        {
          "internalType": "uint256",
          "name": "tokenId",
          "type": "uint256"
        }
      ],
      "name": "safeTransferFrom",
      "outputs": [],
      "stateMutability": "nonpayable",
      "type": "function"
    },
    {
      "inputs": [
        {
          "internalType": "address",
          "name": "from",
          "type": "address"
        },
        {
          "internalType": "address",
          "name": "to",
          "type": "address"
        },
        {
          "internalType": "uint256",
          "name": "tokenId",
          "type": "uint256"
        },
        {
          "internalType": "bytes",
          "name": "data",
          "type": "bytes"
        }
      ],
      "name": "safeTransferFrom",
      "outputs": [],
      "stateMutability": "nonpayable",
      "type": "function"
    },
    {
      "inputs": [
        {
          "internalType": "address",
          "name": "operator",
          "type": "address"
        },
        {
          "internalType": "bool",
          "name": "approved",
          "type": "bool"
        }
      ],
      "name": "setApprovalForAll",
      "outputs": [],
      "stateMutability": "nonpayable",
      "type": "function"
    },
    {
      "inputs": [
        {
          "internalType": "bytes4",
          "name": "interfaceId",
          "type": "bytes4"
        }
      ],
      "name": "supportsInterface",
      "outputs": [
        {
          "internalType": "bool",
          "name": "",
          "type": "bool"
        }
      ],
      "stateMutability": "view",
      "type": "function"
    },
    {
      "inputs": [],
      "name": "symbol",
      "outputs": [
        {
          "internalType": "string",
          "name": "",
          "type": "string"
        }
      ],
      "stateMutability": "view",
      "type": "function"
    },
    {
      "inputs": [
        {
          "internalType": "uint256",
          "name": "tokenId",
          "type": "uint256"
        }
      ],
      "name": "tokenURI",
      "outputs": [
        {
          "internalType": "string",
          "name": "",
          "type": "string"
        }
      ],
      "stateMutability": "view",
      "type": "function"
    },
    {
      "inputs": [],
      "name": "totalSupply",
      "outputs": [
        {
          "internalType": "uint256",
          "name": "",
          "type": "uint256"
        }
      ],
      "stateMutability": "view",
      "type": "function"
    },
    {
      "inputs": [
        {
          "internalType": "address",
          "name": "from",
          "type": "address"
        },
        {
          "internalType": "address",
          "name": "to",
          "type": "address"
        },
        {
          "internalType": "uint256",
          "name": "tokenId",
          "type": "uint256"
        }
      ],
      "name": "transferFrom",
      "outputs": [],
      "stateMutability": "nonpayable",
      "type": "function"
    },
    {
      "inputs": [
        {
          "internalType": "address",
          "name": "to",
          "type": "address"
        },
        {
          "internalType": "uint256",
          "name": "tokenId",
          "type": "uint256"
        }
      ],
      "name": "transferNFT",
      "outputs": [],
      "stateMutability": "nonpayable",
      "type": "function"
    },
    {
      "inputs": [],
      "name": "withdraw",
      "outputs": [],
      "stateMutability": "nonpayable",
      "type": "function"
    }
  ],
  "bytecode": "0x608060405260006007553480156200001657600080fd5b5060405162003a3938038062003a3983398181016040528101906200003c919062000283565b828281600090816200004f91906200055e565b5080600190816200006191906200055e565b50505033600860006101000a81548173ffffffffffffffffffffffffffffffffffffffff021916908373ffffffffffffffffffffffffffffffffffffffff1602179055508060098190555050505062000645565b6000604051905090565b600080fd5b600080fd5b600080fd5b600080fd5b6000601f19601f8301169050919050565b7f4e487b7100000000000000000000000000000000000000000000000000000000600052604160045260246000fd5b6200011e82620000d3565b810181811067ffffffffffffffff8211171562000140576200013f620000e4565b5b80604052505050565b600062000155620000b5565b905062000163828262000113565b919050565b600067ffffffffffffffff821115620001865762000185620000e4565b5b6200019182620000d3565b9050602081019050919050565b60005b83811015620001be578082015181840152602081019050620001a1565b60008484015250505050565b6000620001e1620001db8462000168565b62000149565b9050828152602081018484840111156200020057620001ff620000ce565b5b6200020d8482856200019e565b509392505050565b600082601f8301126200022d576200022c620000c9565b5b81516200023f848260208601620001ca565b91505092915050565b6000819050919050565b6200025d8162000248565b81146200026957600080fd5b50565b6000815190506200027d8162000252565b92915050565b6000806000606084860312156200029f576200029e620000bf565b5b600084015167ffffffffffffffff811115620002c057620002bf620000c4565b5b620002ce8682870162000215565b935050602084015167ffffffffffffffff811115620002f257620002f1620000c4565b5b620003008682870162000215565b925050604062000313868287016200026c565b9150509250925092565b600081519050919050565b7f4e487b7100000000000000000000000000000000000000000000000000000000600052602260045260246000fd5b600060028204905060018216806200037057607f821691505b60208210810362000386576200038562000328565b5b50919050565b60008190508160005260206000209050919050565b60006020601f8301049050919050565b600082821b905092915050565b600060088302620003f07fffffffffffffffffffffffffffffffffffffffffffffffffffffffffffffffff82620003b1565b620003fc8683620003b1565b95508019841693508086168417925050509392505050565b6000819050919050565b60006200043f62000439620004338462000248565b62000414565b62000248565b9050919050565b6000819050919050565b6200045b836200041e565b620004736200046a8262000446565b848454620003be565b825550505050565b600090565b6200048a6200047b565b6200049781848462000450565b505050565b5b81811015620004bf57620004b360008262000480565b6001810190506200049d565b5050565b601f8211156200050e57620004d8816200038c565b620004e384620003a1565b81016020851015620004f3578190505b6200050b6200050285620003a1565b8301826200049c565b50505b505050565b600082821c905092915050565b6000620005336000198460080262000513565b1980831691505092915050565b60006200054e838362000520565b9150826002028217905092915050565b62000569826200031d565b67ffffffffffffffff811115620005855762000584620000e4565b5b62000591825462000357565b6200059e828285620004c3565b600060209050601f831160018114620005d65760008415620005c1578287015190505b620005cd858262000540565b8655506200063d565b601f198416620005e6866200038c565b60005b828110156200061057848901518255600182019150602085019450602081019050620005e9565b868310156200063057848901516200062c601f89168262000520565b8355505b6001600288020188555050505b505050505050565b6133e480620006556000396000f3fe60806040526004361061011f5760003560e01c806367f718a9116100a0578063a22cb46511610064578063a22cb465146103d5578063b88d4fde146103fe578063c87b56dd14610427578063d85d3d2714610464578063e985e9c5146104805761011f565b806367f718a9146102ee57806370a08231146103195780638da5cb5b1461035657806394ab67fe1461038157806395d89b41146103aa5761011f565b806318160ddd116100e757806318160ddd1461021d57806323b872dd146102485780633ccfd60b1461027157806342842e0e146102885780636352211e146102b15761011f565b806301ffc9a71461012457806306fdde0314610161578063081812fc1461018c578063095ea7b3146101c957806313faede6146101f2575b600080fd5b34801561013057600080fd5b5061014b60048036038101906101469190611ff1565b6104bd565b6040516101589190612039565b60405180910390f35b34801561016d57600080fd5b5061017661059f565b60405161018391906120e4565b60405180910390f35b34801561019857600080fd5b506101b360048036038101906101ae919061213c565b610631565b6040516101c091906121aa565b60405180910390f35b3480156101d557600080fd5b506101f060048036038101906101eb91906121f1565b610677565b005b3480156101fe57600080fd5b5061020761078e565b6040516102149190612240565b60405180910390f35b34801561022957600080fd5b50610232610794565b60405161023f9190612240565b60405180910390f35b34801561025457600080fd5b5061026f600480360381019061026a919061225b565b61079e565b005b34801561027d57600080fd5b506102866107fe565b005b34801561029457600080fd5b506102af60048036038101906102aa919061225b565b6108f3565b005b3480156102bd57600080fd5b506102d860048036038101906102d3919061213c565b610913565b6040516102e591906121aa565b60405180910390f35b3480156102fa57600080fd5b50610303610999565b604051610310919061236c565b60405180910390f35b34801561032557600080fd5b50610340600480360381019061033b919061238e565b610a2e565b60405161034d9190612240565b60405180910390f35b34801561036257600080fd5b5061036b610ae5565b60405161037891906121aa565b60405180910390f35b34801561038d57600080fd5b506103a860048036038101906103a391906121f1565b610b0b565b005b3480156103b657600080fd5b506103bf610bd3565b6040516103cc91906120e4565b60405180910390f35b3480156103e157600080fd5b506103fc60048036038101906103f791906123e7565b610c65565b005b34801561040a57600080fd5b506104256004803603810190610420919061255c565b610c7b565b005b34801561043357600080fd5b5061044e6004803603810190610449919061213c565b610cdd565b60405161045b91906120e4565b60405180910390f35b61047e60048036038101906104799190612680565b610def565b005b34801561048c57600080fd5b506104a760048036038101906104a291906126c9565b610e9d565b6040516104b49190612039565b60405180910390f35b60007f80ac58cd000000000000000000000000000000000000000000000000000000007bffffffffffffffffffffffffffffffffffffffffffffffffffffffff1916827bffffffffffffffffffffffffffffffffffffffffffffffffffffffff1916148061058857507f5b5e139f000000000000000000000000000000000000000000000000000000007bffffffffffffffffffffffffffffffffffffffffffffffffffffffff1916827bffffffffffffffffffffffffffffffffffffffffffffffffffffffff1916145b80610598575061059782610f31565b5b9050919050565b6060600080546105ae90612738565b80601f01602080910402602001604051908101604052809291908181526020018280546105da90612738565b80156106275780601f106105fc57610100808354040283529160200191610627565b820191906000526020600020905b81548152906001019060200180831161060a57829003601f168201915b5050505050905090565b600061063c82610f9b565b6004600083815260200190815260200160002060009054906101000a900473ffffffffffffffffffffffffffffffffffffffff169050919050565b600061068282610913565b90508073ffffffffffffffffffffffffffffffffffffffff168373ffffffffffffffffffffffffffffffffffffffff16036106f2576040517f08c379a00000000000000000000000000000000000000000000000000000000081526004016106e9906127db565b60405180910390fd5b8073ffffffffffffffffffffffffffffffffffffffff16610711610fe6565b73ffffffffffffffffffffffffffffffffffffffff161480610740575061073f8161073a610fe6565b610e9d565b5b61077f576040517f08c379a00000000000000000000000000000000000000000000000000000000081526004016107769061286d565b60405180910390fd5b6107898383610fee565b505050565b60095481565b6000600754905090565b6107af6107a9610fe6565b826110a7565b6107ee576040517f08c379a00000000000000000000000000000000000000000000000000000000081526004016107e5906128ff565b60405180910390fd5b6107f983838361113c565b505050565b600860009054906101000a900473ffffffffffffffffffffffffffffffffffffffff1673ffffffffffffffffffffffffffffffffffffffff163373ffffffffffffffffffffffffffffffffffffffff161461085857600080fd5b6000600860009054906101000a900473ffffffffffffffffffffffffffffffffffffffff1673ffffffffffffffffffffffffffffffffffffffff16476040516108a090612950565b60006040518083038185875af1925050503d80600081146108dd576040519150601f19603f3d011682016040523d82523d6000602084013e6108e2565b606091505b50509050806108f057600080fd5b50565b61090e83838360405180602001604052806000815250610c7b565b505050565b60008061091f83611435565b9050600073ffffffffffffffffffffffffffffffffffffffff168173ffffffffffffffffffffffffffffffffffffffff1603610990576040517f08c379a0000000000000000000000000000000000000000000000000000000008152600401610987906129b1565b60405180910390fd5b80915050919050565b6060600a60003373ffffffffffffffffffffffffffffffffffffffff1673ffffffffffffffffffffffffffffffffffffffff168152602001908152602001600020805480602002602001604051908101604052809291908181526020018280548015610a2457602002820191906000526020600020905b815481526020019060010190808311610a10575b5050505050905090565b60008073ffffffffffffffffffffffffffffffffffffffff168273ffffffffffffffffffffffffffffffffffffffff1603610a9e576040517f08c379a0000000000000000000000000000000000000000000000000000000008152600401610a9590612a43565b60405180910390fd5b600360008373ffffffffffffffffffffffffffffffffffffffff1673ffffffffffffffffffffffffffffffffffffffff168152602001908152602001600020549050919050565b600860009054906101000a900473ffffffffffffffffffffffffffffffffffffffff1681565b610b1533826110a7565b610b54576040517f08c379a0000000000000000000000000000000000000000000000000000000008152600401610b4b90612ad5565b60405180910390fd5b610b5f33838361113c565b610b693382611472565b600a60008373ffffffffffffffffffffffffffffffffffffffff1673ffffffffffffffffffffffffffffffffffffffff1681526020019081526020016000208190806001815401808255809150506001900390600052602060002001600090919091909150555050565b606060018054610be290612738565b80601f0160208091040260200160405190810160405280929190818152602001828054610c0e90612738565b8015610c5b5780601f10610c3057610100808354040283529160200191610c5b565b820191906000526020600020905b815481529060010190602001808311610c3e57829003601f168201915b5050505050905090565b610c77610c70610fe6565b838361157c565b5050565b610c8c610c86610fe6565b836110a7565b610ccb576040517f08c379a0000000000000000000000000000000000000000000000000000000008152600401610cc2906128ff565b60405180910390fd5b610cd7848484846116e8565b50505050565b6060610ce882610f9b565b6000600660008481526020019081526020016000208054610d0890612738565b80601f0160208091040260200160405190810160405280929190818152602001828054610d3490612738565b8015610d815780601f10610d5657610100808354040283529160200191610d81565b820191906000526020600020905b815481529060010190602001808311610d6457829003601f168201915b505050505090506000610d92611744565b90506000815103610da7578192505050610dea565b600082511115610ddc578082604051602001610dc4929190612b31565b60405160208183030381529060405292505050610dea565b610de58461175b565b925050505b919050565b600954341015610dfe57600080fd5b60076000815480929190610e1190612b84565b919050555060006007549050610e2733826117c3565b610e3181836119e0565b600a60003373ffffffffffffffffffffffffffffffffffffffff1673ffffffffffffffffffffffffffffffffffffffff16815260200190815260200160002060075490806001815401808255809150506001900390600052602060002001600090919091909150555050565b6000600560008473ffffffffffffffffffffffffffffffffffffffff1673ffffffffffffffffffffffffffffffffffffffff16815260200190815260200160002060008373ffffffffffffffffffffffffffffffffffffffff1673ffffffffffffffffffffffffffffffffffffffff16815260200190815260200160002060009054906101000a900460ff16905092915050565b60007f01ffc9a7000000000000000000000000000000000000000000000000000000007bffffffffffffffffffffffffffffffffffffffffffffffffffffffff1916827bffffffffffffffffffffffffffffffffffffffffffffffffffffffff1916149050919050565b610fa481611a4d565b610fe3576040517f08c379a0000000000000000000000000000000000000000000000000000000008152600401610fda906129b1565b60405180910390fd5b50565b600033905090565b816004600083815260200190815260200160002060006101000a81548173ffffffffffffffffffffffffffffffffffffffff021916908373ffffffffffffffffffffffffffffffffffffffff160217905550808273ffffffffffffffffffffffffffffffffffffffff1661106183610913565b73ffffffffffffffffffffffffffffffffffffffff167f8c5be1e5ebec7d5bd14f71427d1e84f3dd0314c0f7b2291e5b200ac8c7c3b92560405160405180910390a45050565b6000806110b383610913565b90508073ffffffffffffffffffffffffffffffffffffffff168473ffffffffffffffffffffffffffffffffffffffff1614806110f557506110f48185610e9d565b5b8061113357508373ffffffffffffffffffffffffffffffffffffffff1661111b84610631565b73ffffffffffffffffffffffffffffffffffffffff16145b91505092915050565b8273ffffffffffffffffffffffffffffffffffffffff1661115c82610913565b73ffffffffffffffffffffffffffffffffffffffff16146111b2576040517f08c379a00000000000000000000000000000000000000000000000000000000081526004016111a990612c3e565b60405180910390fd5b600073ffffffffffffffffffffffffffffffffffffffff168273ffffffffffffffffffffffffffffffffffffffff1603611221576040517f08c379a000000000000000000000000000000000000000000000000000000000815260040161121890612cd0565b60405180910390fd5b61122e8383836001611a8e565b8273ffffffffffffffffffffffffffffffffffffffff1661124e82610913565b73ffffffffffffffffffffffffffffffffffffffff16146112a4576040517f08c379a000000000000000000000000000000000000000000000000000000000815260040161129b90612c3e565b60405180910390fd5b6004600082815260200190815260200160002060006101000a81549073ffffffffffffffffffffffffffffffffffffffff02191690556001600360008573ffffffffffffffffffffffffffffffffffffffff1673ffffffffffffffffffffffffffffffffffffffff168152602001908152602001600020600082825403925050819055506001600360008473ffffffffffffffffffffffffffffffffffffffff1673ffffffffffffffffffffffffffffffffffffffff16815260200190815260200160002060008282540192505081905550816002600083815260200190815260200160002060006101000a81548173ffffffffffffffffffffffffffffffffffffffff021916908373ffffffffffffffffffffffffffffffffffffffff160217905550808273ffffffffffffffffffffffffffffffffffffffff168473ffffffffffffffffffffffffffffffffffffffff167fddf252ad1be2c89b69c2b068fc378daa952ba7f163c4a11628f55a4df523b3ef60405160405180910390a46114308383836001611bb4565b505050565b60006002600083815260200190815260200160002060009054906101000a900473ffffffffffffffffffffffffffffffffffffffff169050919050565b6000600a60008473ffffffffffffffffffffffffffffffffffffffff1673ffffffffffffffffffffffffffffffffffffffff168152602001908152602001600020905060005b818054905081101561157657828282815481106114d8576114d7612cf0565b5b9060005260206000200154036115635781600183805490506114fa9190612d1f565b8154811061150b5761150a612cf0565b5b906000526020600020015482828154811061152957611528612cf0565b5b90600052602060002001819055508180548061154857611547612d53565b5b60019003818190600052602060002001600090559055611576565b808061156e90612b84565b9150506114b8565b50505050565b8173ffffffffffffffffffffffffffffffffffffffff168373ffffffffffffffffffffffffffffffffffffffff16036115ea576040517f08c379a00000000000000000000000000000000000000000000000000000000081526004016115e190612dce565b60405180910390fd5b80600560008573ffffffffffffffffffffffffffffffffffffffff1673ffffffffffffffffffffffffffffffffffffffff16815260200190815260200160002060008473ffffffffffffffffffffffffffffffffffffffff1673ffffffffffffffffffffffffffffffffffffffff16815260200190815260200160002060006101000a81548160ff0219169083151502179055508173ffffffffffffffffffffffffffffffffffffffff168373ffffffffffffffffffffffffffffffffffffffff167f17307eab39ab6107e8899845ad3d59bd9653f200f220920489ca2b5937696c31836040516116db9190612039565b60405180910390a3505050565b6116f384848461113c565b6116ff84848484611bba565b61173e576040517f08c379a000000000000000000000000000000000000000000000000000000000815260040161173590612e60565b60405180910390fd5b50505050565b606060405180602001604052806000815250905090565b606061176682610f9b565b6000611770611744565b9050600081511161179057604051806020016040528060008152506117bb565b8061179a84611d41565b6040516020016117ab929190612b31565b6040516020818303038152906040525b915050919050565b600073ffffffffffffffffffffffffffffffffffffffff168273ffffffffffffffffffffffffffffffffffffffff1603611832576040517f08c379a000000000000000000000000000000000000000000000000000000000815260040161182990612ecc565b60405180910390fd5b61183b81611a4d565b1561187b576040517f08c379a000000000000000000000000000000000000000000000000000000000815260040161187290612f38565b60405180910390fd5b611889600083836001611a8e565b61189281611a4d565b156118d2576040517f08c379a00000000000000000000000000000000000000000000000000000000081526004016118c990612f38565b60405180910390fd5b6001600360008473ffffffffffffffffffffffffffffffffffffffff1673ffffffffffffffffffffffffffffffffffffffff16815260200190815260200160002060008282540192505081905550816002600083815260200190815260200160002060006101000a81548173ffffffffffffffffffffffffffffffffffffffff021916908373ffffffffffffffffffffffffffffffffffffffff160217905550808273ffffffffffffffffffffffffffffffffffffffff16600073ffffffffffffffffffffffffffffffffffffffff167fddf252ad1be2c89b69c2b068fc378daa952ba7f163c4a11628f55a4df523b3ef60405160405180910390a46119dc600083836001611bb4565b5050565b6119e982611a4d565b611a28576040517f08c379a0000000000000000000000000000000000000000000000000000000008152600401611a1f90612fca565b60405180910390fd5b80600660008481526020019081526020016000209081611a489190613196565b505050565b60008073ffffffffffffffffffffffffffffffffffffffff16611a6f83611435565b73ffffffffffffffffffffffffffffffffffffffff1614159050919050565b6001811115611bae57600073ffffffffffffffffffffffffffffffffffffffff168473ffffffffffffffffffffffffffffffffffffffff1614611b225780600360008673ffffffffffffffffffffffffffffffffffffffff1673ffffffffffffffffffffffffffffffffffffffff1681526020019081526020016000206000828254611b1a9190612d1f565b925050819055505b600073ffffffffffffffffffffffffffffffffffffffff168373ffffffffffffffffffffffffffffffffffffffff1614611bad5780600360008573ffffffffffffffffffffffffffffffffffffffff1673ffffffffffffffffffffffffffffffffffffffff1681526020019081526020016000206000828254611ba59190613268565b925050819055505b5b50505050565b50505050565b6000611bdb8473ffffffffffffffffffffffffffffffffffffffff16611e0f565b15611d34578373ffffffffffffffffffffffffffffffffffffffff1663150b7a02611c04610fe6565b8786866040518563ffffffff1660e01b8152600401611c2694939291906132f1565b6020604051808303816000875af1925050508015611c6257506040513d601f19601f82011682018060405250810190611c5f9190613352565b60015b611ce4573d8060008114611c92576040519150601f19603f3d011682016040523d82523d6000602084013e611c97565b606091505b506000815103611cdc576040517f08c379a0000000000000000000000000000000000000000000000000000000008152600401611cd390612e60565b60405180910390fd5b805181602001fd5b63150b7a0260e01b7bffffffffffffffffffffffffffffffffffffffffffffffffffffffff1916817bffffffffffffffffffffffffffffffffffffffffffffffffffffffff191614915050611d39565b600190505b949350505050565b606060006001611d5084611e32565b01905060008167ffffffffffffffff811115611d6f57611d6e612431565b5b6040519080825280601f01601f191660200182016040528015611da15781602001600182028036833780820191505090505b509050600082602001820190505b600115611e04578080600190039150507f3031323334353637383961626364656600000000000000000000000000000000600a86061a8153600a8581611df857611df761337f565b5b04945060008503611daf575b819350505050919050565b6000808273ffffffffffffffffffffffffffffffffffffffff163b119050919050565b600080600090507a184f03e93ff9f4daa797ed6e38ed64bf6a1f0100000000000000008310611e90577a184f03e93ff9f4daa797ed6e38ed64bf6a1f0100000000000000008381611e8657611e8561337f565b5b0492506040810190505b6d04ee2d6d415b85acef81000000008310611ecd576d04ee2d6d415b85acef81000000008381611ec357611ec261337f565b5b0492506020810190505b662386f26fc100008310611efc57662386f26fc100008381611ef257611ef161337f565b5b0492506010810190505b6305f5e1008310611f25576305f5e1008381611f1b57611f1a61337f565b5b0492506008810190505b6127108310611f4a576127108381611f4057611f3f61337f565b5b0492506004810190505b60648310611f6d5760648381611f6357611f6261337f565b5b0492506002810190505b600a8310611f7c576001810190505b80915050919050565b6000604051905090565b600080fd5b600080fd5b60007fffffffff0000000000000000000000000000000000000000000000000000000082169050919050565b611fce81611f99565b8114611fd957600080fd5b50565b600081359050611feb81611fc5565b92915050565b60006020828403121561200757612006611f8f565b5b600061201584828501611fdc565b91505092915050565b60008115159050919050565b6120338161201e565b82525050565b600060208201905061204e600083018461202a565b92915050565b600081519050919050565b600082825260208201905092915050565b60005b8381101561208e578082015181840152602081019050612073565b60008484015250505050565b6000601f19601f8301169050919050565b60006120b682612054565b6120c0818561205f565b93506120d0818560208601612070565b6120d98161209a565b840191505092915050565b600060208201905081810360008301526120fe81846120ab565b905092915050565b6000819050919050565b61211981612106565b811461212457600080fd5b50565b60008135905061213681612110565b92915050565b60006020828403121561215257612151611f8f565b5b600061216084828501612127565b91505092915050565b600073ffffffffffffffffffffffffffffffffffffffff82169050919050565b600061219482612169565b9050919050565b6121a481612189565b82525050565b60006020820190506121bf600083018461219b565b92915050565b6121ce81612189565b81146121d957600080fd5b50565b6000813590506121eb816121c5565b92915050565b6000806040838503121561220857612207611f8f565b5b6000612216858286016121dc565b925050602061222785828601612127565b9150509250929050565b61223a81612106565b82525050565b60006020820190506122556000830184612231565b92915050565b60008060006060848603121561227457612273611f8f565b5b6000612282868287016121dc565b9350506020612293868287016121dc565b92505060406122a486828701612127565b9150509250925092565b600081519050919050565b600082825260208201905092915050565b6000819050602082019050919050565b6122e381612106565b82525050565b60006122f583836122da565b60208301905092915050565b6000602082019050919050565b6000612319826122ae565b61232381856122b9565b935061232e836122ca565b8060005b8381101561235f57815161234688826122e9565b975061235183612301565b925050600181019050612332565b5085935050505092915050565b60006020820190508181036000830152612386818461230e565b905092915050565b6000602082840312156123a4576123a3611f8f565b5b60006123b2848285016121dc565b91505092915050565b6123c48161201e565b81146123cf57600080fd5b50565b6000813590506123e1816123bb565b92915050565b600080604083850312156123fe576123fd611f8f565b5b600061240c858286016121dc565b925050602061241d858286016123d2565b9150509250929050565b600080fd5b600080fd5b7f4e487b7100000000000000000000000000000000000000000000000000000000600052604160045260246000fd5b6124698261209a565b810181811067ffffffffffffffff8211171561248857612487612431565b5b80604052505050565b600061249b611f85565b90506124a78282612460565b919050565b600067ffffffffffffffff8211156124c7576124c6612431565b5b6124d08261209a565b9050602081019050919050565b82818337600083830152505050565b60006124ff6124fa846124ac565b612491565b90508281526020810184848401111561251b5761251a61242c565b5b6125268482856124dd565b509392505050565b600082601f83011261254357612542612427565b5b81356125538482602086016124ec565b91505092915050565b6000806000806080858703121561257657612575611f8f565b5b6000612584878288016121dc565b9450506020612595878288016121dc565b93505060406125a687828801612127565b925050606085013567ffffffffffffffff8111156125c7576125c6611f94565b5b6125d38782880161252e565b91505092959194509250565b600067ffffffffffffffff8211156125fa576125f9612431565b5b6126038261209a565b9050602081019050919050565b600061262361261e846125df565b612491565b90508281526020810184848401111561263f5761263e61242c565b5b61264a8482856124dd565b509392505050565b600082601f83011261266757612666612427565b5b8135612677848260208601612610565b91505092915050565b60006020828403121561269657612695611f8f565b5b600082013567ffffffffffffffff8111156126b4576126b3611f94565b5b6126c084828501612652565b91505092915050565b600080604083850312156126e0576126df611f8f565b5b60006126ee858286016121dc565b92505060206126ff858286016121dc565b9150509250929050565b7f4e487b7100000000000000000000000000000000000000000000000000000000600052602260045260246000fd5b6000600282049050600182168061275057607f821691505b60208210810361276357612762612709565b5b50919050565b7f4552433732313a20617070726f76616c20746f2063757272656e74206f776e6560008201527f7200000000000000000000000000000000000000000000000000000000000000602082015250565b60006127c560218361205f565b91506127d082612769565b604082019050919050565b600060208201905081810360008301526127f4816127b8565b9050919050565b7f4552433732313a20617070726f76652063616c6c6572206973206e6f7420746f60008201527f6b656e206f776e6572206f7220617070726f76656420666f7220616c6c000000602082015250565b6000612857603d8361205f565b9150612862826127fb565b604082019050919050565b600060208201905081810360008301526128868161284a565b9050919050565b7f4552433732313a2063616c6c6572206973206e6f7420746f6b656e206f776e6560008201527f72206f7220617070726f76656400000000000000000000000000000000000000602082015250565b60006128e9602d8361205f565b91506128f48261288d565b604082019050919050565b60006020820190508181036000830152612918816128dc565b9050919050565b600081905092915050565b50565b600061293a60008361291f565b91506129458261292a565b600082019050919050565b600061295b8261292d565b9150819050919050565b7f4552433732313a20696e76616c696420746f6b656e2049440000000000000000600082015250565b600061299b60188361205f565b91506129a682612965565b602082019050919050565b600060208201905081810360008301526129ca8161298e565b9050919050565b7f4552433732313a2061646472657373207a65726f206973206e6f74206120766160008201527f6c6964206f776e65720000000000000000000000000000000000000000000000602082015250565b6000612a2d60298361205f565b9150612a38826129d1565b604082019050919050565b60006020820190508181036000830152612a5c81612a20565b9050919050565b7f5472616e736665722063616c6c6572206973206e6f74206f776e6572206e6f7260008201527f20617070726f7665640000000000000000000000000000000000000000000000602082015250565b6000612abf60298361205f565b9150612aca82612a63565b604082019050919050565b60006020820190508181036000830152612aee81612ab2565b9050919050565b600081905092915050565b6000612b0b82612054565b612b158185612af5565b9350612b25818560208601612070565b80840191505092915050565b6000612b3d8285612b00565b9150612b498284612b00565b91508190509392505050565b7f4e487b7100000000000000000000000000000000000000000000000000000000600052601160045260246000fd5b6000612b8f82612106565b91507fffffffffffffffffffffffffffffffffffffffffffffffffffffffffffffffff8203612bc157612bc0612b55565b5b600182019050919050565b7f4552433732313a207472616e736665722066726f6d20696e636f72726563742060008201527f6f776e6572000000000000000000000000000000000000000000000000000000602082015250565b6000612c2860258361205f565b9150612c3382612bcc565b604082019050919050565b60006020820190508181036000830152612c5781612c1b565b9050919050565b7f4552433732313a207472616e7366657220746f20746865207a65726f2061646460008201527f7265737300000000000000000000000000000000000000000000000000000000602082015250565b6000612cba60248361205f565b9150612cc582612c5e565b604082019050919050565b60006020820190508181036000830152612ce981612cad565b9050919050565b7f4e487b7100000000000000000000000000000000000000000000000000000000600052603260045260246000fd5b6000612d2a82612106565b9150612d3583612106565b9250828203905081811115612d4d57612d4c612b55565b5b92915050565b7f4e487b7100000000000000000000000000000000000000000000000000000000600052603160045260246000fd5b7f4552433732313a20617070726f766520746f2063616c6c657200000000000000600082015250565b6000612db860198361205f565b9150612dc382612d82565b602082019050919050565b60006020820190508181036000830152612de781612dab565b9050919050565b7f4552433732313a207472616e7366657220746f206e6f6e20455243373231526560008201527f63656976657220696d706c656d656e7465720000000000000000000000000000602082015250565b6000612e4a60328361205f565b9150612e5582612dee565b604082019050919050565b60006020820190508181036000830152612e7981612e3d565b9050919050565b7f4552433732313a206d696e7420746f20746865207a65726f2061646472657373600082015250565b6000612eb660208361205f565b9150612ec182612e80565b602082019050919050565b60006020820190508181036000830152612ee581612ea9565b9050919050565b7f4552433732313a20746f6b656e20616c7265616479206d696e74656400000000600082015250565b6000612f22601c8361205f565b9150612f2d82612eec565b602082019050919050565b60006020820190508181036000830152612f5181612f15565b9050919050565b7f45524337323155524953746f726167653a2055524920736574206f66206e6f6e60008201527f6578697374656e7420746f6b656e000000000000000000000000000000000000602082015250565b6000612fb4602e8361205f565b9150612fbf82612f58565b604082019050919050565b60006020820190508181036000830152612fe381612fa7565b9050919050565b60008190508160005260206000209050919050565b60006020601f8301049050919050565b600082821b905092915050565b60006008830261304c7fffffffffffffffffffffffffffffffffffffffffffffffffffffffffffffffff8261300f565b613056868361300f565b95508019841693508086168417925050509392505050565b6000819050919050565b600061309361308e61308984612106565b61306e565b612106565b9050919050565b6000819050919050565b6130ad83613078565b6130c16130b98261309a565b84845461301c565b825550505050565b600090565b6130d66130c9565b6130e18184846130a4565b505050565b5b81811015613105576130fa6000826130ce565b6001810190506130e7565b5050565b601f82111561314a5761311b81612fea565b61312484612fff565b81016020851015613133578190505b61314761313f85612fff565b8301826130e6565b50505b505050565b600082821c905092915050565b600061316d6000198460080261314f565b1980831691505092915050565b6000613186838361315c565b9150826002028217905092915050565b61319f82612054565b67ffffffffffffffff8111156131b8576131b7612431565b5b6131c28254612738565b6131cd828285613109565b600060209050601f83116001811461320057600084156131ee578287015190505b6131f8858261317a565b865550613260565b601f19841661320e86612fea565b60005b8281101561323657848901518255600182019150602085019450602081019050613211565b86831015613253578489015161324f601f89168261315c565b8355505b6001600288020188555050505b505050505050565b600061327382612106565b915061327e83612106565b925082820190508082111561329657613295612b55565b5b92915050565b600081519050919050565b600082825260208201905092915050565b60006132c38261329c565b6132cd81856132a7565b93506132dd818560208601612070565b6132e68161209a565b840191505092915050565b6000608082019050613306600083018761219b565b613313602083018661219b565b6133206040830185612231565b818103606083015261333281846132b8565b905095945050505050565b60008151905061334c81611fc5565b92915050565b60006020828403121561336857613367611f8f565b5b60006133768482850161333d565b91505092915050565b7f4e487b7100000000000000000000000000000000000000000000000000000000600052601260045260246000fdfea2646970667358221220e6460539ad7fd8a1e4c121154b7b284b7807c6b52a4ff0fd56ec84d20599909764736f6c63430008110033",
  "linkReferences": {},
  "deployedLinkReferences": {}
}